:020000040800F2
:1000000000060020E1020008E3020008E302000805
:10001000E3020008E3020008E3020008E30200082C
:10002000E3020008E3020008E3020008257200086A
:10003000E3020008E3020008E3020008E30200080C
:10004000E3020008E3020008E3020008E3020008FC
:10005000E3020008E30200080D810008398100086E
:100060006581000891810008BD8100089D4200085B
:10007000C5420008F14200081D430008494300083A
:10008000714300089D430008E3020008E3020008F2
:10009000E3020008E3020008E3020008E981000827
:1000A000E3020008E3020008E3020008E30200089C
:1000B000E3020008E3020008E3020008E30200088C
:1000C000E3020008E3020008E3020008E30200087C
:1000D000E3020008E3020008E3020008E30200086C
:1000E0004D820008E3020008E3020008E302000872
:1000F000E3020008E3020008E3020008C943000825
:10010000E3020008C1820008E9820008E302000857
:10011000D5820008E3020008E3020008E3020008B9
:10012000F54300081D4400084944000875440008D0
:10013000A1440008E3020008E3020008E30200080B
:10014000E3020008E3020008E3020008E3020008FB
:10015000C9440008F544000821450008E3020008EE
:10016000E3020008E3020008E3020008E3020008DB
:10017000E3020008ED7D0008E3020008E302000846
:10018000E3020008E3020008E3020008E3020008BB
:10019000E3020008E3020008E3020008E3020008AB
:1001A000E3020008E3020008E3020008E30200089B
:1001B000E3020008E3020008E3020008E30200088B
:1001C000E3020008E3020008E3020008E30200087B
:1001D000E3020008D97D0008E3020008E3020008FA
:1001E000E3020008E3020008E3020008E30200085B
:1001F000E3020008E3020008E3020008E30200084B
:10020000E3020008E3020008E3020008E30200083A
:10021000E3020008E3020008E3020008E30200082A
:10022000E3020008E3020008E3020008E30200081A
:10023000E3020008E3020008E3020008E30200080A
:10024000E3020008E3020008E3020008E3020008FA
:10025000E3020008E3020008E3020008E3020008EA
:10026000E3020008E3020008E3020008E3020008DA
:10027000E3020008E3020008E3020008E3020008CA
:10028000E3020008E3020008E3020008E3020008BA
:10029000E3020008E3020008E3020008E3020008AA
:1002A000E3020008E3020008E3020008E30200089A
:1002B000E3020008E3020008E3020008E30200088A
:1002C000E3020008E3020008E3020008E30200087A
:1002D000E3020008E3020008E3020008E30200086A
:1002E00002E000F000F8FEE772B6374880F30888B5
:1002F000364880F3098836483649086040F20000E5
:10030000CCF200004EF63471CEF200010860BFF36B
:100310004F8FBFF36F8F40F20000C0F2F0004EF637
:100320008851CEF200010860BFF34F8FBFF36F8F8B
:100330004FF00000E1EE100A4EF63C71CEF20001E3
:100340000860062080F31488BFF36F8F06F0CCFF9F
:1003500006F074F94FF055301F491B4A91423CBFDB
:1003600041F8040BFAE71D49184A91423CBF41F895
:10037000040BFAE71A491B4A1B4B9A423EBF51F83D
:10038000040B42F8040BF8E700201849184A914280
:100390003CBF41F8040BFAE706F0E4FF06F0D0F9A1
:1003A000144C154DAC4203DA54F8041B8847F9E7A6
:1003B00000F05CF8114C124DAC4203DA54F8041B07
:1003C0008847F9E706F0CCBF000600200022002095
:1003D0000000000808ED00E00000002000060020FA
:1003E000189A0008002200206C22002070220020B1
:1003F0005C5E0020E0020008E0020008E002000865
:10040000E00200082DE9F04F2DED108AC1F80CD064
:10041000D0F80CD0BDEC108ABDE8F08F002383F338
:1004200011882846A047002005F0F8FEFEE705F0F9
:100430004FFE00DFFEE7000053B94AB9002908BFAC
:1004400000281CBF4FF0FF314FF0FF3000F00CB818
:10045000ADF1080C6DE904CE08F0FEFBDDF804E018
:10046000DDE9022304B07047704700BF38B501F0E2
:10047000DDF901F08BFB06F0DFFD054606F0C8FE56
:100480000446C0B90F4B9D4218D001339D4217D08E
:1004900041F28835002006F0D9FD0CB100F07AF861
:1004A00001F010FB00F016FD08B100F073F82846CB
:1004B00000F01EF9F9E700250124EBE70546E9E71E
:1004C0000546F9E7010007B008B501F07DF9A0F194
:1004D00020035842584108BD07B541F212030221DA
:1004E00001A8ADF8043001F08BF903B05DF804FB0E
:1004F00038B5302383F31188174803680BB105F032
:1005000071FF0023154A4FF47A71134805F060FF1C
:10051000002383F31188124C236813B12368013B35
:100520002360636813B16368013B63600D4D2B78F2
:1005300033B963687BB9022001F034FA3223636077
:100540002B78032B07D163682BB9022001F02AFA1C
:100550004FF47A73636038BD80230020F1040008F3
:10056000742300207C230020084B187003280CD82B
:10057000DFE800F008050208022001F009BA0220B5
:1005800001F0FCB9024B00225A6070477C23002026
:1005900074230020F8B5504B504A1C4619680131AD
:1005A00000F0998004339342F8D162684C4B9A4230
:1005B00040F291804B4B9B6803F1006303F50033DD
:1005C0009A4280F08880002001F04AF90220FFF76B
:1005D000CBFF454B0021D3F8E820C3F8E810D3F84F
:1005E0001021C3F81011D3F81021D3F8EC20C3F870
:1005F000EC10D3F81421C3F81411D3F81421D3F854
:10060000F020C3F8F010D3F81821C3F81811D3F86C
:100610001821D3F8802042F00062C3F88020D3F87C
:10062000802022F00062C3F88020D3F88020D3F825
:10063000802042F00072C3F88020D3F8802022F09E
:100640000072C3F88020D3F8803072B64FF0E023F8
:10065000C3F8084DD4E90004BFF34F8FBFF36F8F89
:10066000224AC2F88410BFF34F8F536923F48033BA
:100670005361BFF34F8FD2F8803043F6E076C3F377
:10068000C905C3F34E335B0103EA060C29464CEA65
:1006900081770139C2F87472F9D2203B13F1200F2F
:1006A000F2D1BFF34F8FBFF36F8FBFF34F8FBFF305
:1006B0006F8F536923F4003353610023C2F8503223
:1006C000BFF34F8FBFF36F8F302383F311888546BD
:1006D00080F308882047F8BD0000020820000208C7
:1006E000FFFF0108002200200044025800ED00E056
:1006F0002DE9F04F95B0DFF8E4B22022FF21019000
:100700000CA8DBF8086001F087F9AF4A1378A3B9A9
:100710000121AE4811700360302383F31188036810
:100720000BB105F05FFE0023A94A4FF47A71A74888
:1007300005F04EFE002383F31188019B13B1A54BF6
:10074000019A1A60A44A1378032B03D00023137074
:10075000A04A53604FF00009019DCA464C46C84666
:10076000012001F015F925B19A4B1B68002B00F010
:100770002082002001F028F80590059B002BF2DB79
:10078000012001F0FBF8059B213B1F2BE8D801A2BB
:1007900052F823F01508000831080008B9080008CD
:1007A000610700086107000861070008490900089F
:1007B000230B0008410A00089F0A0008C70A000826
:1007C000ED0A000861070008FF0A00086107000839
:1007D000710B0008AB08000861070008B90B00089E
:1007E0008B090008AB080008610700089F0A000891
:1007F0006107000861070008610700086107000839
:100800006107000861070008610700086107000828
:10081000B90800080220FFF757FE002800F0B58055
:1008200001F046F90AF00B0301240B2B71D105E10D
:100830004FF47A7000F0C8FF071EC0F2A6800220B5
:10084000FFF742FE002800F0A080013F052F00F2D4
:10085000DB81DFE807F0030A0D10132E05230421C6
:1008600007A8079300F0CCFF17E004215B48F9E7E5
:1008700004215B48F6E704215A48F3E74FF01C08CF
:10088000404608F1040800F0EDFF0421079007A896
:1008900000F0B6FFB8F12C0FF2D101234FF00008A1
:1008A000BB404AEA03035FFA83FA01F001F984B31B
:1008B000B8E704214C48D5E7002C66D00AF00B03BA
:1008C0000B2B61D10220FFF7FFFD044600285BD00F
:1008D0000120002700F0C4FF0220FFF745FE1FFAA9
:1008E00087F9484600F0CCFF0546B0B93A4B0122E3
:1008F0002E4602201A7001F041F8DBF80830B342AE
:100900001BD80026344BA1461E70324B5E6001F0AE
:10091000CFF8FFF7E1FD234674E10599484601371A
:10092000A1F140025142514100F0BAFF05460028B2
:10093000D5D1A14641F212132EE0304600F092FFCD
:100940000130F6D10436D8E7FCB10AF00B030B2BCB
:100950001AD10220FFF708FE322000F035FF071EF3
:1009600012DB17F003030FD1BA19DBF808108A4223
:100970000AD8B7F5807F07D81C4A9F4213DCC820ED
:10098000FFF7A2FD044698BB0124019BB9F1000FBB
:1009900008BF1D4641F21233022107A8ADF81C30F2
:1009A00000F02EFFB7E74FF47A70CDE9023200F085
:1009B0000BFF059005990029E7DB0599039A029B37
:1009C00002F8011B0133D8E77023002080230020A8
:1009D000F1040008742300207C2300200022002062
:1009E00004220020082200200C2200207022002077
:1009F0001F2E11D8C6F120020CAB26F0030084494B
:100A0000BA42184428BF3A46029200F0E5FF029A23
:100A1000FF217F4801F000F8BB10C7F387027C4933
:100A20003046029301F000F80746002882D00422E5
:100A3000029B3C4613FB026601F03AF8002568E78A
:100A40000220FFF741FD00289FD000F047FF00285B
:100A50009BD000273B4612E01F2F1AD80C9A013278
:100A600017D027F0030250326A4452F8200C079046
:100A70000422184607A901F0E9F804370346DBF819
:100A80000820BA42E8D80793042107A800F0B8FE6E
:100A90000BE73846029300F0E5FE029BE7E70023F0
:100AA000642106A8069300F0A3FE00287FF46DAF32
:100AB0000220FFF709FD00283FF467AF069800F019
:100AC00003FF0790E0E70023642106A8069300F0E7
:100AD0008FFE00287FF459AF0220FFF7F5FC0028B5
:100AE0003FF453AF069800F0F1FEEAE70220FFF76B
:100AF000EBFC00283FF449AF00F000FFE1E70220E3
:100B0000FFF7E2FC00283FF440AF07A9142000F0F3
:100B1000FBFE07460421069006A800F071FE394648
:100B2000B3E7322000F050FE071EFFF62EAFBB07E2
:100B30007FF42BAF07EB0803DBF8082093423FF666
:100B400024AF0220FFF7C0FC00283FF41EAF27F0BF
:100B500003074744B8453FF4A8AE404608F10408EF
:100B600000F080FE0421079007A800F049FEF1E79D
:100B70004FF47A70FFF7A8FC00283FF406AF00F0AE
:100B8000ADFE00283FF4D6AE0C9B01330CD00822FA
:100B90000CA9002000F048FF00283FF4CBAE202233
:100BA000FF210CA800F038FFFFF796FC194805F06C
:100BB0003BFB15B0BDE8F08F002C3FF4E6AE0AF029
:100BC0000B030B2B7FF4E1AE0023642107A80793EE
:100BD00000F00EFE074600287FF4D7AE0220FFF794
:100BE00073FC029000283FF4D0AEFFF775FC41F291
:100BF000883005F019FB079800F0A6FF3D4600F08D
:100C000057FF029B1C46ABE54FF00008BDE600BF56
:100C100070220020A086010070470000704700008D
:100C2000704700002DE9F04100F580370446164674
:100C30003B7C5BB9C0681030204400F0CDFEE56815
:100C40003544B5F5004FE56002D816B1BDE8F08136
:100C5000DEB905F07F0605F110000021C6F180061F
:100C60002044F6B232462E4400F0D6FEA06804F1CD
:100C70001008324600F10060414600F5003005F0F2
:100C800093FF30B901233B74E0E74FF4004635464B
:100C9000ECE7A36805F11001E268404633442144C3
:100CA000521BA360E26000F097FE0220BDE8F04115
:100CB00000F078BE183000F0D9BC000010B5044632
:100CC00000F0E0FF204610BD10B5044600F0DAFF4A
:100CD000204610BDC0B2A0F14103052B02D8373821
:100CE000C0B27047A0F16103052B94BF573830386C
:100CF000F6E7000070B504461546084603220C4985
:100D000000F074FE014688B907346E1C15F9110015
:100D1000FFF7E0FF024616F911000131FFF7DAFF95
:100D2000102940EA021004F8010FEFD170BD00BF96
:100D3000F88F00082DE9F04FADF53F7D416807467B
:100D400001222AA802F066FE0646002876D18346D4
:100D500082461125DFF804810DF104094FF4805219
:100D600041462AA84B4602F09BFF0446002865D165
:100D7000D9F80020B2F5805F60D8002A63D0D9F896
:100D800000209442E8D21E2D1AD010DC112D3FD144
:100D9000121B022A33D92F4908EB040000F026FE6B
:100DA00068BB02342825A4B20134A4B2E7E72D2D94
:100DB00039D0322D37D118F80430202BF4D0264604
:100DC00018F804300A2B2CD1ABEB0A0208EB0A010D
:100DD00002A811254F2A28BF4F2208F0F1F8A21BC4
:100DE00008EB060116A84F2A28BF4F2208F0E8F8A2
:100DF0003B6816AA02A9DB6838469847D4E718F87A
:100E000004303A2B1AD00A2BCED0A2461325CBE7BA
:100E100018F804300A2B11D03A2BF7D1A34632250B
:100E2000C2E71E25C0E73B68121B08EB04013846E9
:100E30001B692D259847B9F80040B5E700200DF54E
:100E40003F7DBDE8F08F3B68384603491B699847F2
:100E50000120F4E7FC8F0008AC90000898230020E4
:100E600030B500F11805044685B0284600F0E8FBCF
:100E70002046FFF75FFF60B12946684600F03EFC60
:100E8000102204F10801684608F062F8B0FA80F018
:100E9000400905B030BD000070B504460025EEB233
:100EA000304600F0EDFC48B92046FFF743FF58B14B
:100EB00004F58034207C80F0010006E000213046FB
:100EC000013500F0EDFC08B9002070BD022000F0F3
:100ED00069FDE4E7F0B5C9B006F0C6F800F0EEFE33
:100EE00018B90025284649B0F0BD69462A4802F0E5
:100EF000A1FF00284DD1294C204602F0CBFF284805
:100F000002F0C8FF274802F0C5FF2146224803F03F
:100F10003DF80028E5D1702000F0AEFE064610B185
:100F2000214B44600360336830469B689847054610
:100F300000282CD01A4F1948394603F027F80546E7
:100F40000028CED1194800F097FE044638B1184B5E
:100F50004760036000F58033C0E902551D742368C3
:100F600020469B689847054628B10E490C4803F077
:100F70000DF80028B5D1336830465B6898471CB13E
:100F8000236820465B68984700F080FEAAE7044685
:100F9000F1E70025F8E700BF009000081090000876
:100FA000279000083D9000081491000814000100EB
:100FB000309100082DE9F04FD34A8DB0D1F800A050
:100FC00003685244D0F804E0D04E1A44D1F81C9083
:100FD000DFF8B0C3DFF8B0B3D0E90234634003EA0E
:100FE0000E03634013444A6801920EEB7363019C45
:100FF000C74A2244C468224484688EEA04051D401E
:10100000654015448A68029203EB3555029CC14A3B
:101010002244846822448EEA03042C4084EA0E04AD
:101020001444CA6805EBF4340392164483EA0502BB
:10103000224076445A4032440E69049604EBB222B0
:10104000049FB54E3E441E4485EA040313406B40A2
:1010500033444E69059602EB7363059FAF4E3E44E1
:101060002E4484EA02051D40654035448E6906968B
:1010700003EB3555069FAA4E3E44264482EA0304FC
:101080002C4054403444A74E4E4405EBF4341644EF
:1010900083EA050222405A4032440E6A079604EB66
:1010A000B222079FA04E3E441E4485EA040313402B
:1010B0006B4033444E6AD1F83880089602EB736374
:1010C000089F9A4E3E442E4484EA02051D40654026
:1010D00035448E6AA6F5244703EB355509964F3FF4
:1010E000274482EA03042C4054403C44CF6A0A97C8
:1010F00005EBF4340A9E8E4F37440E6B174483EA97
:1011000005020B9622405A403A448A4F374404EB7A
:10111000B222019E1F4485EA040313406B403B4406
:101120004F6BBC4402EB7363AC4484EA02051D4080
:1011300065406544DFF854C2C44403EB3555A4440C
:1011400082EA03042C4054406444D1F83CC07A49FC
:1011500005EBF4346144114483EA050222405A400D
:101160000A44764904EBB2223144069E194484EACB
:1011700002032B4063400B44714902EBF36331449B
:101180000A9E0D4482EA03012140514029446D4DDD
:1011900003EBF1513544059E254483EA01041440D4
:1011A0005C402C44684D01EBB4445544154481EA3D
:1011B00004021A404A402A44644D04EB323235445A
:1011C000099E1D4484EA02030B4063402B44604D9A
:1011D00002EBF3633544049E0D4482EA030121408F
:1011E000514029445B4D03EBF1516544254483EAAA
:1011F000010414405C402C44574D01EBB444354489
:10120000089E154481EA04021A404A402A44534D7C
:1012100004EB32323544039E1D4484EA02030B4042
:1012200063402B444E4D02EBF36345440D4482EA88
:1012300003012140514029444A4D03EBF15135440B
:10124000079E254483EA010414405C402C44464D2B
:1012500001EBB4443544029E154481EA04021A406D
:101260004A402A44414D04EB32323D441D4484EA55
:1012700002030B4063402B443D4D02EBF3633544C6
:101280000B9E0D4482EA0301B344059E2140934422
:1012900051402944374D03EBF1514D442C4483EA2E
:1012A000010515405D40254401EBB54581EA050483
:1012B00004EA03024A405A44A6F5B82B079E05EB00
:1012C0003232ABF2BE6B54409B442B4B5C443344F4
:1012D0000A9E02EB34740B4485EA02016140194412
:1012E000264B334404EB7151019E2B4482EA0405E2
:1012F0004D401D44224B434401EB35451A4484EADA
:1013000001036B40134443E078A46AD7EECEBDC11D
:1013100056B7C7E8DB702024AF0F7CF52AC6874795
:10132000134630A8019546FDD8988069AFF7448BE5
:10133000BED75C892211906B2108B44962251EF644
:1013400040B340C0515A5E26AAC7B6E95D102FD6F9
:101350005314440281E6A1D8C8FBD3E7E6CDE121CE
:10136000D60737C3870DD5F4ED145A4505E9E3A92F
:10137000F8A3EFFCD9026F6781F6718722619D6D3A
:101380000C38E5FD937198FD8A4C2A8D8E4379A621
:10139000904A324405EB7323049E224481EA0504FB
:1013A0005C4014448C4A324403EB3474099E0A4472
:1013B00085EA030161401144884A4A4404EB7151B3
:1013C000154483EA04024A402A44854D354401EB22
:1013D0003242039E2B4484EA010555401D44814B53
:1013E0003B4402EB7525234481EA02046C401C4413
:1013F0007D4B534405EB3474194482EA0503634082
:101400000B447A49314404EB7353069E0A4485EA3F
:10141000040159401144764A324403EB3141089E9D
:101420002A4484EA03054D401544724A324401EBD4
:1014300075250B9E144483EA01026A4022446E4CD7
:10144000344405EB3272029E234481EA0504544081
:101450001C446A4B634402EB74540B4485EA02015A
:1014600061401944664B334404EB3141059E1D44F1
:1014700082EA04034B402B44624D01EB7323554435
:10148000154463EA04024A402A445F4D03EBB2620A
:101490004D44254462EA01045C402C445B4D02EB60
:1014A000B45445440D4464EA030151402944584D65
:1014B00004EB714135440B9E1D4461EA0203634015
:1014C0002B44544D01EBF3233544039E154463EA4A
:1014D00004024A402A44504D03EBB262354425448D
:1014E00062EA01045C402C44099DA5F5801602EBDC
:1014F000B4544A4DA6F683360E4464EA03015140C3
:101500003144019E04EB71413544079E1D4461EA5C
:10151000020363402B44424D01EBF3233544069E06
:10152000154463EA04024A402A443E4D03EBB2628A
:101530006544254462EA01045C402C443A4D02EBC8
:10154000B4543544049E0D4464EA030151402944D7
:10155000364D04EB71413D442B4461EA0205654080
:101560001D44334B01EBF52533440A9E1A4465EACA
:1015700004034B4013442F4A05EBB3633244029EED
:10158000144463EA01026A4022442B4C03EBB2523A
:101590003444089E0C4462EA050159402144274C1A
:1015A00002EB71413444254461EA030454402C4465
:1015B00005682B4403600EEB010303EBF423436047
:1015C00083681944C3681A448160C2600DB0BDE8E5
:1015D000F08F00BF44EABEA4A9CFDE4B604BBBF640
:1015E00070BCBFBEC67E9B28FA27A1EA8530EFD427
:1015F000051D880439D0D4D9E599DBE6F87CA21F13
:101600006556ACC4442229F497FF2A43A72394AB20
:1016100039A093FCC3595B6592CC0C8FD15D848556
:101620004F7EA86FE0E62CFE144301A3A111084EE3
:10163000827E53F735F23ABDBBD2D72A91D386EBDF
:10164000094B036003F18833436003F12943A3F599
:101650009613A3F68B638360A3F18833C3600023E2
:10166000C0E90433704700BF012345672DE9F84303
:101670001446026905460E46E300C2F3C50800F1B0
:1016800018079B18036122BF43690133436112F4B9
:10169000FC7F436903EB5473436114D0C8F14009E4
:1016A00007EB08004C4504D22246BDE8F84307F09A
:1016B0005FBC403C4A464E4407F05AFC444439461D
:1016C0002846FFF777FCA04604EB0609B8F13F0F68
:1016D000A9EB080107D8A1096FF03F033846594329
:1016E0006218711AE1E74022384607F041FC39469A
:1016F0002846A8F14008FFF75DFCE7E770B50B69E5
:1017000001F1180506460C46C3F3C503EA18501C40
:101710008022EA54C3F13F02072A1FD8002100F0BB
:101720007BF929462046FFF745FC38220021284650
:1017300000F072F9236929462046236563696365D1
:10174000FFF738FC21461022304607F011FC2046F6
:1017500058220021BDE8704000F05EB9C3F13702A5
:101760000021E5E72DE9F0474FF47A7706460D466C
:1017700000245743DFF84880DFF8489098F900309C
:101780005A1C01D0A3420FD159F824002A463146F1
:101790000368D3F820A03B46D047854204D1074BCD
:1017A00001201C70BDE8F087631C0124022BE5D1E9
:1017B0004FF4FA7004F038FD0020F3E7C83300203E
:1017C0001022002014220020002307B50246012128
:1017D0000DF107008DF80730FFF7C4FF20B19DF829
:1017E000070003B05DF804FB4FF0FF30F9E700009D
:1017F0000A46042108B5FFF7B5FF013808BD00000F
:10180000074B0A4630B419780546064B53F82100B9
:1018100029460368DC69044BA44630BC604700BF1E
:10182000C833002014220020A086010070B50A4EA3
:1018300000250A4C05F05CF930802068338883422B
:1018400008D905F051F9236805440133B5F5003F87
:101850002360F2D370BD00BFC0330020C43300202A
:1018600005F026BA00F1006000F50030006870470E
:1018700000F10060920000F5003005F095B900001D
:10188000054B1A68054B1B889B1A834202D91044EA
:1018900005F02AB900207047C4330020C03300206F
:1018A00038B50446074D29B128682044BDE83840C2
:1018B00005F032B92868204405F01CF90028F3D05F
:1018C00038BD00BFC43300200020704700F1FF5036
:1018D00000F58F10D0F8000870470000064991F815
:1018E000243033B100230822086A81F82430FFF73E
:1018F000BFBF0120704700BF98330020014B18681C
:10190000704700BF0010005C194B1A4A70B51D6883
:10191000431E0420C5F30B040B442D0C013808D1E1
:101920009942084610D30524134A013C15D1401AA8
:1019300070BD1688A6420ED152680846013A9842F8
:10194000F1D212F9014F1CB92C2200F8012BEAE761
:1019500000F8014BF3E70832E0E71688AE4204D105
:1019600098423CBF967800F8016B0432DDE700BF77
:101970000010005C1C22002044910008022803D1C2
:10198000024B4FF400729A61704700BF001002587A
:10199000022803D1024B4FF000729A61704700BFDA
:1019A00000100258022804D1024A536983F40073DC
:1019B000536170470010025870B504464FF47A76B0
:1019C00004B970BD412C254628BF412506FB05F012
:1019D000641B04F029FCF3E7002310B5934200D107
:1019E00010BDCC5CC4540133F8E70000013810B5D9
:1019F00010F9013F3BB191F900409C4203D11AB16B
:101A00000131013AF4E71AB191F90020981A10BD9A
:101A10001046FCE7FFF7FEBF02440346934200D1A5
:101A2000704703F8011BF9E72DE9F0471F4D1446F5
:101A30000746894695F824209AB32B6A03EB820364
:101A400083422ED0FFF74AFF58BB0020BDE8F08745
:101A500095F824302BB92022FF2114482F62FFF77C
:101A6000DBFF95F824004946C0F1080805EB80002B
:101A7000A04528BFA0464FEA8802FFF7ADFF95F8C2
:101A800024305FFA88F60FFA88FAA41B1E4407EB8D
:101A90008A07F6B209EB8809082EE4B285F82460BB
:101AA000D0D0002CD4D10120D0E700BF9833002043
:101AB000024B1A78024B1A70704700BFC8330020DF
:101AC0001022002038B51B4C1B4D204603F0B2FEFF
:101AD0002946204603F0DAFE2D684FF47A70D5F8D7
:101AE0009020D2F8043843F00203C2F80438FFF71C
:101AF00063FF2846114903F0D7FFD5F89020104D19
:101B0000D2F80438286823F00203A042C2F804384F
:101B10004FF4E1330B4A136002D0114603F0E8FDA5
:101B20006868A04204D00749BDE8384003F0E0BD32
:101B300038BD00BFC84200207C9800088498000887
:101B400014220020CC330020F8B50C4B05460C4E77
:101B50001F780C4B56F827209A420DD00A4C0021D2
:101B600018222046FFF758FF214656F82700256027
:101B7000BDE8F84003F0BCBDF8BD00BFC83300208D
:101B800014220020C8420020CC330020F8B571B6E2
:101B9000002301201A46194602F068FD0446802001
:101BA00005F026F9002843D00025254A80274FF468
:101BB000D06C3D26136913F0C06F26D1D2F81031D6
:101BC00013F0C06F21D1236805F10061996023688B
:101BD000D86023685F602368C3F800C021680B6881
:101BE00043F001030B6021680B6823F01E030B60B8
:101BF00021680B68DB07FCD4237B8035616806FA1B
:101C000003F3B5F5001F0B60D4D1204602F06EFD42
:101C1000B5F5001F0BD000240A4D0B4E012005F036
:101C200047F82B88A34204D8002005F041F861B69C
:101C3000F8BD30682044013404F06EFFF1E700BFC6
:101C400000200052C0330020C433002030B50A44C5
:101C5000084D914200D130BD11F8013B5840082396
:101C600040F30004013B2C4013F0FF0384EA5000D2
:101C7000F6D1EEE72083B8ED0121884238BF08464F
:101C800005F0EEB808B105F0EFB8704710B5084C94
:101C900001220849002001F099FE23783BB1064853
:101CA00003F096FC044803F0D1FC0023237010BD20
:101CB000E433002080900008C43800201A48F8B5AA
:101CC000036D2BB901224FF48051503005F0F2F929
:101CD000164E33780BB1FFF7D9FF0324144D0027BC
:101CE000134911486F6003F0A3FC0F4803F0D2FAC8
:101CF00040B1013C0C4803F0A9FC14F0FF04EFD103
:101D000020460EE00B4901220B4801F05FFE014620
:101D100018B1054803F05CFCEBE7084800F010F848
:101D200001203070F8BD00BFC4380020E43300202B
:101D30003422002080900008E833002082900008C0
:101D40000FB4002004B07047006870470346006875
:101D5000596870470B0A017043700B0C090E8370B1
:101D6000C1707047110A027003714170110C120E9C
:101D70008170C2701A0A42711A0C1B0E8271C371F3
:101D800070470000C36A0239023B8B4283BF43891C
:101D9000006C01FB0300002070470000034600F1C7
:101DA0000B010020C20142EA500213F8010B50FA65
:101DB00082F28B42D0B2F5D17047000010B5427864
:101DC00004460020013203465201022B4FEAC03183
:101DD00008BF042341EA5001E05C013310FA81F1AD
:101DE0009A4288B2F1D810BD036893B11A4612F82E
:101DF000011B1F290AD93A29F9D11978302908D1AC
:101E000002339A4205D1026000207047024B1878D5
:101E100070474FF0FF3070473436002038B50D461C
:101E2000044618B9092000232B6038BD0368002B35
:101E3000F8D01A78002AF5D08188DA889142F1D159
:101E4000587804F07FFB10F00100EBD12368EBE73A
:101E500038B5C3780446C3B100F14C05826C012348
:101E60004078294604F094FB88B9A16CA36B226BDF
:101E7000CB1AE070934208D2A378022B05D10A4412
:101E800001232946607804F083FB002038BD01203F
:101E9000FCE7000038B50D4640F25231144602F01E
:101EA00083F9FF2807D9012C0BD9030A0224687093
:101EB0002B70204638BD30B1002CFAD00124287098
:101EC000F7E70024F5E70446F3E700002DE9F843BF
:101ED0000025076806460C468D76836B002B48D09C
:101EE0003B78042B4AD12B462E464FF0400821E088
:101EF000B8F5187F25D218F01F0F05F1010508BFAE
:101F000008F1020832F8080008F102082BB900F5C0
:101F1000205292B2B2F5006F0BD306F11A01C6F14E
:101F2000FF0240EA03402144FFF7B4FF48B10644F2
:101F3000002003463A6992F82310A942D8D803B981
:101F400016B93F230126A37600232644B376637394
:101F50003A69137903F03701DB0621730BD402F1E0
:101F60003800FFF7F3FEC4E9000193896381D38948
:101F70002381BDE8F88300200146F4E7C36C0133F8
:101F80004ED1F16B00234D1E184615F8012F01307C
:101F9000202A0DD0052A08BFE522092805D10B2BE0
:101FA0009FBFE6182E2701337773E618013372734B
:101FB0000B28EAD1E21800205073A27E002A3BD100
:101FC0008BB304F10C0308255A78581C002A42D11F
:101FD0001B1B0C3B2AE0B9F1000F05D100F5205383
:101FE0009BB2B3F5006F0BD308F11A01C8F1FF02E1
:101FF00040EA09402144FFF74DFF40B180440020F2
:1020000002358146FB68585B0028E4D14046B9F1AF
:10201000000F4FF0000218BF002023189A76B0E797
:10202000A946A846EEE73F23A376012323440022D6
:102030009A760B7B03B96373CB7A01F11C0003F032
:102040003F0323730023FFF77FFE20606360CB8A8A
:1020500063810B8B8CE72E2A134609D0413A192A4B
:1020600003D80A7B154200D0203343730346ABE705
:102070001025FAE738B50546002435F8020B08B9F3
:10208000204638BD02F0C2F8E303C2B2C0F3072015
:1020900043EA540312FA83F3C3F34E0444EAC3340D
:1020A00010FA84F4A4B2E8E7F8B50446FFF7D0FECE
:1020B0000546002842D12378032B37D12779012FF9
:1020C00034D104F14C0601464FF400723046FFF75C
:1020D000A3FC55234122722184F84A32AA2304F535
:1020E0000D7084F84F2084F84B32522384F830125C
:1020F00084F84C3084F84D30612384F8311284F830
:102100004E3084F83332A16984F83222FFF722FE80
:10211000616904F50E70FFF71DFE626B3B463146A8
:1021200001326078A26404F033FA257100226078ED
:10213000114604F051FA003818BF0120F8BD000024
:10214000C2F307238A76CB760378032B01BF120CE8
:102150000A75120A4A75704738B5836C04460D46F5
:102160008B420FD0FFF774FE58B901232A4604F1C1
:102170004C01607804F0E8F910B101204FF0FF3510
:10218000A56438BD0020FCE738B500230446C370C1
:102190004FF0FF338364FFF7DFFF00284BD1B4F823
:1021A0004A524AF655239D4207D10B22254904F194
:1021B0004C0006F0CDFE00283FD094F84C30EB2BBD
:1021C00003D01833DBB2012B2ED84AF655239D429B
:1021D00006D108221C4904F19E0006F0B9FE48B35E
:1021E000B4F85730B3F5007F1ED194F85930DBB105
:1021F0005A1E1A4218D1B4F85A30ABB194F85C3078
:10220000013B012B10D8B4F85D306BB1B4F85F30EE
:102210007F2B06D804F16C00FFF796FDB0F5803FE8
:1022200002D3B4F8623053B94AF65520854214BF40
:102230000320022038BD0420FCE70120FAE700203B
:10224000F8E700BFAD900008B990000802392DE909
:10225000F04701F007044FF0010A466C05460AFA00
:1022600004F41746984606EB1136C1F3C809E4B2E8
:10227000314628460136FFF76FFF10B1BDE8F08701
:10228000994605EB090191F84C3003EA0402003A43
:1022900018BF0122424513D06340013F81F84C3002
:1022A00085F803A0EAD0640014F0FF04E9D109F135
:1022B000010301244FF00009B3F5007FE0D3D7E715
:1022C0000220DBE70129F8B50C4640F28C80066855
:1022D000F36A8B4240F287803378013B032B00F294
:1022E0008280DFE803F00229384B01EB5105B16B26
:1022F000304601EB5521FFF72FFF10B14FF0FF30B3
:10230000F8BD6F1CC5F30805B16B3046354401EBD1
:10231000572195F84C50FFF71FFF0028EED1C7F367
:102320000807374497F84C3045EA0320E3074CBFD1
:102330000009C0F30B00E3E7B16B304601EB142159
:10234000FFF70AFF0028D9D1640004F4FF74344475
:10235000B4F84C00D4E7B16B304601EBD411FFF771
:10236000FBFE0028CAD1A40006F14C0004F4FE7460
:102370002044FFF7E9FC20F07040C1E7D0E90431C8
:10238000C57953EA010201D0826802B95DBB826857
:10239000022DA4EB02020DD1013B41F1FF315B0A9A
:1023A00043EAC1537189B3FBF1F39A421BD81CD0A5
:1023B000601CA5E7032D02D183699342F8D8C36955
:1023C0009BB9B16B304601EBD411FFF7C5FE002875
:1023D00094D1A0004C3600F4FE703044FFF7B4FCFA
:1023E00020F000408CE701208AE76FF0004087E78B
:1023F000F8B5056806460C462B78042B14BF4FF43D
:1024000000124FF080528A4201D80220F8BDCA065D
:10241000FBD18268016312BB022B12D82B89B3EB6C
:10242000541FF2D9E86BC6E90D200028EDD000EB6F
:1024300054204C35C4F30804B06300202544F563F0
:10244000E4E7EB6BC271002BE8D06F891A467F027C
:10245000BC42114605D22846FFF794FCE3E7134639
:10246000F3E73046FFF72EFF431C024606D0012853
:10247000CBD9EB6A8342C8D9E41BE9E70120C5E761
:1024800001292DE9F84305460C46164608D9C36ACA
:102490008B4205D90378022B5DD003D8012B1FD0C6
:1024A000022026E0033B012BFAD8816B01EBD4110B
:1024B000FFF752FEE0B92B46A40013F84C2B04F4AE
:1024C000FE74042A07D0181926F07046FFF73CFC6A
:1024D00000F07040064331461819FFF73BFC2EE030
:1024E00001EB5107816B01EB5721FFF735FE10B16E
:1024F0000120BDE8F88314F0010405F14C0907F14F
:102500000108C7F30807F3B228461FBF19F80720D0
:1025100002F00F0242EA0313DBB209F8073001238D
:10252000A96BEB7001EB5821FFF716FE0028DFD1F5
:10253000C8F308083CB1C6F3071609F80860012380
:102540000020EB70D5E719F80830C6F3032623F016
:102550000F031E43F1E7816B01EB1421FFF7FCFD34
:102560000028C5D1640005F14C0304F4FF741E5526
:102570001A19C6F307265670E1E70000F8B50446BD
:102580000E461746E3690BB91846F8BD012BA6EBBA
:102590000305206814BFAA1C3A46691CFFF770FFA8
:1025A0000028F2D1E369013BE361EBE770B5C37941
:1025B0000446032B01D0002070BD81688369CD18CB
:1025C000A94202D10023E371F5E74E1C2068324690
:1025D000FFF756FF0028EFD13146F1E701292DE939
:1025E000F84306460C461746056802D80220BDE8A7
:1025F000F883EB6A8B42F9D97AB9A1462146304675
:10260000A046FFF75FFE0446B0B92B78042B02D139
:10261000002F44D1F7710020E9E72B78042B02D179
:10262000C379022BE9D04FF0FF3239462846FFF735
:1026300027FF0028E1D0DAE70128D7D0421C01D1DA
:102640000120D4E72B78042B10D1EA6AAB69023A57
:10265000934213D308F10102A24203D02B78042B3A
:1026600013D0A146EB6AA342C8D8CEE70022414668
:102670002846FFF705FF0028E7D0B8E70133AB6134
:102680002B7943F001032B71E4E70023A2EB09024D
:1026900049462846FFF7DAFD0028E2D0A7E7F3799C
:1026A0008BB9B468BC4202D10223F371B3E721466F
:1026B0003046FFF707FE012898D9431CC0D00134EB
:1026C0008442EFD0A7E7032BA5D1B368BB42A2D8C1
:1026D000B2691344BB42E7D29DE700002DE9F843FD
:1026E00005460E46FFF7B4FB044660BB05F14C09F6
:1026F000314628464FF40072FFF744FB2146A86498
:1027000007464846FFF788F96C896402B4F5004F24
:1027100028BF4FF40044B4F5007F30D9204604F0C0
:10272000A7FB804690B122460026640A0021FFF7ED
:1027300073F96B899E420BD3404604F0A9FB6C8968
:10274000A41B18BF01242046BDE8F8836408E2E713
:102750002346BA194146687803F01AFF0028EBD1E6
:102760002644E6E701366B899E42E8D20123BA1976
:102770004946687803F00CFF0028F3D0DFE7002615
:10278000F1E700002DE9FF4100230F4616460B60DC
:10279000FFF72AFB431C054600F0B4817D4B53F83C
:1027A0002040002C00F0B0813C6006F0FE0623784B
:1027B0006BB1607803F0C6FEC70708D40EB14607B8
:1027C00003D4002004B0BDE8F0810A20FAE7E8B2A3
:1027D00000236070237003F0A3FEC50700F196810B
:1027E0000EB14107F1D400212046FFF7CDFC0228AD
:1027F00040F0958004F212236E4604F252216A469C
:1028000018461033FFF7A0FA42F8040B8B42F7D1B9
:10281000002556F8041B002978D02046FFF7B4FCA9
:10282000012874D80128A26C40F0BA8004F1560146
:102830000B2311F8015F002D76D10133402BF8D125
:10284000B4F8B430B3F5807F6ED194F8B830092B6A
:102850006AD104F19400FFF779FA4FF0FF331618AC
:1028600041F10001B34275EB01035DD304F1A00017
:10287000FFF76AFA94F8BA302063012BA37053D1A2
:1028800094F8B900834098B2608100284CD004F1DC
:10289000A800FFF759FA80463F48804544D808F120
:1028A000020062639BB2E06204F1A400FFF74CFAFD
:1028B000871804F19C002764FFF746FA024408FBDE
:1028C00003F0A263C01945EB0503864271EB0303D5
:1028D0002AD32E4604F1AC00FFF736FAE06365B95F
:1028E0006389B34220D9E16B2046FFF74BFA811987
:1028F0002046FFF731FC80B90136631993F84C305C
:10290000812B13D02035C5F30805E8E703200135F6
:10291000042D7FF47EAF042806D1012052E704285D
:10292000FBD001287FF67EAF0D204BE705F11400A8
:1029300004F14C063044FFF707FA01280546F3D9A5
:10294000E36A8342F0D96189821E236C02FB013362
:102950006364A16B204601EBD511FFF7FDFB002856
:10296000DBD105F07F0006EB8000FFF7EDF9421C9C
:1029700003D00135A842ECD0D6E70425C4E9050010
:10298000064A2570138801339BB21380E38000232D
:10299000E36116E738360020FDFFFF7F3636002062
:1029A000B4F85730B3F5007FBED1B4F8621021B946
:1029B00004F17000FFF7C8F9014694F85C502163F8
:1029C0006B1EA570012BAFD894F85980A4F80A802B
:1029D000B8F1000FA8D008F1FF3313EA080FA3D114
:1029E000B4F85D703B0727819ED1B4F85F0018B939
:1029F00004F16C00FFF7A8F9B4F85A30002B93D01B
:102A000001FB05FC03EB171EE64470458CD3A0EBDD
:102A10000E054545B5FBF8F686D33D48864283D87A
:102A20004FF6F57086425CD840F6F575AE428CBF25
:102A3000022501250236134402EB0E00032DE66247
:102A40006263A36320644ED1B4F876303B437FF4D5
:102A50006BAFB30004F17800FFF776F903F2FF13D0
:102A6000E063B1EB532FFFF45FAF4FF0FF33032D63
:102A7000C4E905334FF08003237181D1B4F87C3071
:102A8000012B7FF47DAF511C2046FFF765FB00282A
:102A90007FF476AFB4F84A224AF6552320719A4261
:102AA0007FF46EAF1B4B04F14C00FFF74DF99842D9
:102AB0007FF466AF03F1FF5304F50C70FFF744F9A0
:102AC00003F50053203398427FF45AAF04F50D709C
:102AD000FFF73AF9A06104F50E70FFF735F9606170
:102AE0004EE70325A6E7002F3FF41EAF022D03EBB0
:102AF0000C004FEA46031EBF9B1906F0010606EBC9
:102B00005303ABE70B205DE60C205BE6032059E6A0
:102B1000F5FFFF0F525261412DE9F0470646056867
:102B2000884649B96F69C7B1EB6ABB4298BF0127B4
:102B3000AB69A3B9002405E0FFF7C4FB01280446F4
:102B400003D801242046BDE8F087421C00F0D08065
:102B5000EB6A8342F6D84746EAE70127E8E72A7896
:102B6000EB6A042A7DD1A7F1020A023B9A4528BFED
:102B70004FF0000AD146696C284601EB1931FFF786
:102B8000EBFA002846D109F007020123C9F3C80176
:102B90009340EA6ADBB2023A68184C4609F101092F
:102BA00090F84C00914500EA030033BF5B0000231E
:102BB0004FF40071DBB228BF994608BB0234631E94
:102BC0000333BFD80123214628461A46FFF73EFBB0
:102BD0000228B6D0012800F08B80B8F1000F1ED17A
:102BE0000223F371EA6AAB69023A6C6193429CBFBB
:102BF00003F1FF33AB612B7943F001032B71A1E7A4
:102C0000CA450AD0002BC7D10131B1F5007FB2D23D
:102C10000123C1E74FF0FF34D1E70024CFE7F37978
:102C2000022B07D17B1CA342DCD0B368FB1AB36133
:102C30000323F37108F10102F369A24205D113B134
:102C40000133F361CEE70223FBE70BB90123F36104
:102C5000224641463046FFF791FC002845D101232A
:102C6000EFE7474515D17C1C3046A34298BF0224AC
:102C70002146FFF727FB01283FF463AF431C37D001
:102C8000F8B1D5F81490B9F1010F02D9EB6A994562
:102C900000D3B9464C460134EB6AA34204D8B9F1DB
:102CA000010F3FF447AF022421463046FFF70AFBED
:102CB00048B101283FF445AF013019D04C45EAD165
:102CC00038E7002CE5D04FF0FF3221462846FFF7C9
:102CD000D7FB50B9B8F1000F84D0224641462846B0
:102CE000FFF7CEFB00283FF47DAF01287FF429AF2A
:102CF0004FF0FF3426E700002DE9F843066804464C
:102D0000076B894633782037042B14BF4FF4001328
:102D10004FF08053BB429CBF00238363836B73B12E
:102D2000C7F30808B8F1000F3CD10133416B83634E
:102D300041B93389B3EB571F34D80023A363042070
:102D4000BDE8F8837389013B13EA57232AD1FFF7C3
:102D5000B9FA0128054601D80220F1E7421C01D149
:102D60000120EDE7F36A834216D8B9F1000FE4D0F1
:102D7000616B2046FFF7D0FE0546C8B10128EBD0B5
:102D8000431CEDD001463046FFF7A8FC0028E7D1F0
:102D9000E37943F00403E371294630466563FEF7A7
:102DA000F1FFA0634C36002027634644E663C7E783
:102DB0000720C5E7F8B50E46002104460768FFF76F
:102DC00017FBF0B90546A16B3846FFF7C5F9C0B946
:102DD0003A78E36B042A1B780CD11B060ED5054606
:102DE00001212046FFF788FF0028ECD0042808BF07
:102DF000072006E0E52B01D0002BF0D10135B542CC
:102E0000EED1F8BDC16CF8B54B1C04460568066BE5
:102E10001CD10127A16B2846FFF79EF9D0B92B786A
:102E2000E26B042B0ABF1378E52303F07F031370D2
:102E3000EF70236BB3420DD200212046FFF75CFFF9
:102E40000028E7D0042808BF022003E0FFF7D0FAEB
:102E50000028DED0F8BD0000F8B504460068A16B7C
:102E60000569FFF779F908B10120F8BDE36B1A781D
:102E7000852A01D00220F8E72A4603F1200153F801
:102E8000040B8B4242F8040BF9D16B786FF05F02B0
:102E900001335E0102EB4313B3F5007FEAD8002152
:102EA0002046FFF729FF0428E4D00028DDD1A16BDC
:102EB0002068FFF751F90028D6D1E36B1A78C02AB1
:102EC000D8D105F1200203F1200153F8040B8B4205
:102ED00042F8040BF9D195F823300F222C33B3FBC1
:102EE000F2F3B6EB431FC5D3402700212046FFF77E
:102EF00003FF0428BED00028B7D1A16B2068FFF7DC
:102F00002BF90028B0D1E36B1A78C12AB2D1EA19A3
:102F100003F1200153F8040B8B4242F8040BF9D162
:102F20002037BE42E1D82846FEF748FF6B88181AC2
:102F300018BF0120400098E7F8B50368054601274F
:102F40001C692046FEF73AFFA070000A6678E07020
:102F50002846E96CFFF74CFA20B1022828BF02206E
:102F6000C0B2F8BDA96B2868FFF7F6F80028F4D1C5
:102F7000EB6B04F1200254F8041B944243F8041B49
:102F8000F9D12B68DF70002EE7D000212846013EE2
:102F9000FFF7B2FEE0E700002DE9F843FF27044603
:102FA000066804203D46A16B11B9D8B1042062E047
:102FB0003046FFF7D1F800285DD1E06B0378002B95
:102FC000F4D03278042A10D1852B4ED1236B2046C1
:102FD000E364FFF741FF00284DD133691B7903F00B
:102FE0003F03A3710020BDE8F883C27AE52B02F00D
:102FF0003F02A27144D02E2B42D022F0200108299A
:103000003ED00F2A41D1590638D503F0BF05236BB6
:10301000477BE364437BBB4232D1428B82BB037864
:103020000D21D6F80CE04FF6FF7923F04003DFF8CE
:103030006C80013B4B43012118F801CB30F80CC0E8
:1030400001B3FF2B1CD82EF813C0614601330132A7
:103050000D2AF1D10278520605D521B1FF2B0FD8E8
:1030600000222EF81320013DEDB200212046FFF78B
:1030700043FE002897D00023A363B4E7AB42C9D036
:10308000FF25F2E7CC45E2D0FAE71DB9FEF786FE50
:10309000B842A7D04FF0FF33E364A3E7D491000810
:1030A0002DE9F04F002187B00446D0F80090FFF7DB
:1030B0009FF9804698BB99F80030042B36D1D9F897
:1030C0000C00FEF7D7FF07462046FFF765FF0546D1
:1030D00008B1804623E0D9F810309A8CBA42F3D177
:1030E00093F823B040265D4510D0F106D9F8103092
:1030F00008BF0236985B01F089F8D9F80C30824697
:1031000033F8150001F082F882450CD0EBB29B45F4
:10311000DAD1D9F80C3033F81530002BD4D1404631
:1031200007B0BDE8F08F02360135DCE74FF0FF3322
:103130004FF0FF0AE364554604F140030293A16B8C
:103140004846FFF709F800285BD1E66B3778002F77
:1031500075D0F27AE52F02F03F03A37103D0120776
:103160005AD50F2B03D04FF0FF33E3644DE094F8B2
:103170004B305B063FD4780645D5236B07F0BF077D
:1031800096F80DA0E364737B53453ED1738B002BFF
:103190003BD135780122D9F80C3005F03F05DFF836
:1031A000A8B001930D23013D5D431BF8013BF35A89
:1031B0006AB3FF2D29D81846059301F027F8019B23
:1031C000691C049033F81500039101F01FF8049A6C
:1031D00082421AD1059B03991A460D46194B9B450D
:1031E000E3D13378590604D51AB1019B33F8153071
:1031F0005BB9013FFDB200212046FFF77DFD0028AD
:103200009DD080468BE7BD42BDD0FF25F3E74FF64A
:10321000FF718B42E2D0F8E72DB93046FEF7BEFDD4
:1032200050453FF47CAF94F84B30DB079BD40B2226
:103230000299304605F08CFE002894D16FE74FF0DC
:1032400004086CE7E1910008D491000810B5044629
:103250000A463430FEF778FD886004F13800FEF746
:1032600075FDC2E9040194F8213003F00203D37123
:103270000023D36110BD000003284B8B04BF8A8A52
:1032800043EA0243184670472DE9F04F0B7899B096
:10329000054689462F2BD0F800B001D05C2B09D110
:1032A0004A461378914601322F2BFAD05C2BF8D086
:1032B000002301E0DBF81C300022AB60EA619BF8E0
:1032C000001004292ED16BB3DBF82430DBF820008A
:1032D000DBF828106B628DF8173023F0FF032862AB
:1032E000069004A8A962CDF810B00B921791CDE911
:1032F0000832FFF77DF8002840F05F8104A8FFF74F
:10330000ABFD0346002840F05881DBF8102002F1A5
:103310003800FEF719FDC5E9040392F8213003F0E7
:103320000203EB7199F800301F2B00F20581802316
:103330000021284685F84B3019B0BDE8F04FFFF763
:1033400057B82F2800F073815C2800F070817F2827
:1033500008D80146A148009305F024FE009B0028F0
:1033600040F03881FF2F00F0358123F817400137F6
:10337000E5E0022F03D15A882E2A00F0F38003EBF8
:10338000470206E032F8021D202901D02E2902D181
:10339000013F002FF6D14FF0000103EB470223F865
:1033A0001710002F00F01681002033F8106001463E
:1033B0000130202EF9D009B92E2E02D144F0030499
:1033C000E4B232F8020D2E2801D0013FF9D14FF0BE
:1033D00020324FF0000A6A64D0462A64C5F84720BC
:1033E0000822481C33F811600090002E00F006817E
:1033F000202E04D02E2E07D1B84200F0F58044F0E4
:103400000304E4B20099ECE7924580F0F080009963
:10341000B94213D10B2A08D1ECE00099B94204D08B
:1034200044F00304E4B200F2E9804FEA88080B227A
:103430004FF0080A00975FFA88F8E3E77F2E3ED93D
:1034400044F002013046CDE90223CBB240F25231C2
:10345000019300F0A9FE10F0800F0646DDE902237B
:1034600014D000F07F065E498E5D46B131465D485E
:10347000CDE9022305F096FDDDE9022308B30199A9
:103480005F2641F00301C9B2019110E0FF28ECD999
:10349000511E8A4504D344F003049246E4B2B1E7D6
:1034A00005EB0A01000A0AF1010A81F8400005EB68
:1034B0000A01019C0AF1010A81F84060A2E7019427
:1034C000D4E7A6F1410189B2192902D848F00208CF
:1034D000EDE7A6F1610189B219299EBF203E48F0AF
:1034E0000108B6B2E3E7A00752D408F0010318F0D0
:1034F000040F44EA0313DCB218BF44F0080447E0A9
:10350000002A08BF052058E05A0755D4AB79DB06DE
:1035100062D59BF80000042852D1AB682946EA79AD
:103520002B622B69DBF8100023F0FF0313436B625F
:10353000EB6CAB62FFF78AFE2B680027DB6819F89B
:10354000010B58B140F25231009300F04BFE04469B
:1035500000283FD01F28009B3FF6F3AE0424012F24
:103560007FF407AF1A882E2A7FF409AF002205F1F5
:103570003F0123F817201346BB422CBF20222E22E6
:1035800001330B2B01F8012FF6D144F02004E4B2F3
:10359000284685F84B40FFF783FD95F84B3000280F
:1035A000B2D0042809D1990603F00402A8D5002A54
:1035B000C2D0802385F84B30002019B0BDE8F08FD1
:1035C0002B6B0BF14C01C3F308031944FFF754FEB6
:1035D000A860B1E70620F0E70520EEE7C2900008FA
:1035E00054910008CB9000089245FFF413AF0B2ACA
:1035F0007FF413AF44F003040B22E4B295F840309B
:10360000E52B04BF052385F84030082A04BF4FEAA4
:1036100088085FFA88F808F00C030C2B04D008F037
:103620000303032B7FF45FAF44F00204AFE74A4685
:103630001478914601322F2CFAD05C2CF8D01F2C34
:103640008CBF00240124A40089E700BF2DE9F04FBE
:1036500090F84BB099B004461BF0A00840F07B8175
:103660000668F26832F81830002B40F0A1803378F9
:10367000042B40F0A2800F2308F10E082046B8FB6F
:10368000F3F808F10201FFF795FB0546002840F02A
:10369000FC8008F10108236BA3EB4813E364E37992
:1036A0005F074DD523F004032046E371FEF77EFF4C
:1036B000002840F0EA804FF0FF32616B2046FEF7B1
:1036C0005DFF002840F0E180A368002B38D023681C
:1036D000A16A0493236A0B900693636A17918DF88D
:1036E000173023F0FF03CDE9083004A8FEF780FE71
:1036F000002840F0CA8004A8FFF7AEFB002840F085
:10370000C48070894FF40071D4E90423E0FB0123E5
:103710003069C4E904233830FEF724FB3069D4E96A
:1037200004232830FEF71EFBE379326904A843F036
:10373000010382F82130FFF7FFFB002840F0A5804D
:103740003F220021D6E90364671C3846FEF764F97E
:103750008523002201212370C0234FF0C10E904623
:1037600084F820304023581C04F803E0023304F8A6
:10377000008021B136F8151009B10135EDB2080A03
:10378000E154F8540233D806F3D136F8150002F1AB
:10379000010C80B90232304684F823506270FEF783
:1037A00069FC84F82400000A84F8250000206CE0FD
:1037B00008F1010856E76246D5E704F140070DF12C
:1037C00010091BF0010F97E8070089E8070000F0D7
:1037D000C88040234FF0010A7A4D84F84B303B46B5
:1037E000D6F80CC0BAF1050F99E8070003C323F817
:1037F000022B4FEA12421A7057D9ACF1020153461C
:1038000031F8022F002A43D14846072203F00F0C5B
:103810009E461B090CF13001392988BF0CF1370194
:10382000013A00F8011D02D0BEF10F0FEED802F1EF
:1038300060037E216B4403F8581C04F13F01002310
:10384000934205D011F8010F03F1010C20282ED16D
:103850003F3304F147002344072A97BF02F1600178
:1038600020210132694498BF11F8581C03F8011F48
:103870009842F1D12046FFF713FC00286DD10AF1E0
:10388000010ABAF1640FAAD1072019B0BDE8F08F80
:10389000102002F0010C52080CEB430313F4803F9C
:1038A00018BF6B400138F4D1AAE75346ACE7634632
:1038B000C6E7216B2046A1EB4511FEF799FD0028D4
:1038C000E3D14FF6FF783846FEF768FA0190A16B16
:1038D0003046FEF741FC84460028D6D1E36BE9B2BE
:1038E000019AD6F80CE05A734FF00F021873DA728F
:1038F0004A1E9876D8760D20DFF8CCA04243604669
:1039000040451AF8019B0CF1010C18BF3EF812005B
:1039100003EB090B18BF013203F809004FEA102925
:10392000002808BF4046BCF10D0F8BF80190E7D18D
:10393000404502D03EF812200AB941F0400119700A
:10394000012300212046F370FFF7D6F900289CD10F
:10395000013DBCD118E0062097E7042895D184F8F2
:103960004BB01BF0020F20461BBF08F10C050D23C6
:103970000125B5FBF3F518BF01352946FFF71AFA03
:10398000002882D1013D94D1A16B3046FEF7E4FBC3
:1039900000287FF47AAF01462022E06BFEF73CF866
:1039A000E36B03CF18605960BA7839889A7219812D
:1039B00094F84B30E26B03F0180313730123F37098
:1039C000F4E600BF21100100D49100081FB5CDE935
:1039D000001003A814460391FEF706FA431C15D005
:1039E0000B4A52F820300BB100211970019B0BB12A
:1039F0000021197042F820302CB1002201A968463C
:103A0000FEF7C0FE0446204604B010BD0B24FAE7C2
:103A1000383600202DE9F04F99B017460546019140
:103A2000002800F0388102F03F0A03A901A852469D
:103A3000FEF7A8FE0446002840F09E80039E4FF447
:103A40008C60049603F014FA8046002800F025816B
:103A500000F50073F060019904A83361FFF714FCCE
:103A6000044620B99DF95B30002BB8BF062417F03F
:103A70001C0F00F0B980002C41D0042C78D104A890
:103A8000FFF7E4FD0446002872D14AF0080A3378B3
:103A9000042B77D1346929462E602046FFF7D6FBE8
:103AA0001E220021A01CFDF7B7FF306900211A2259
:103AB0002630FDF7B1FF336920221A71346903F013
:103AC00013FA0146012208342046FEF743F9336910
:103AD00004A883F82120FFF72FFA0446002847D1D5
:103AE000A96849B102462846FEF778FDAF6804464A
:103AF000013F7761002C3BD14AF0400A09E09DF874
:103B0000163013F0110F79D17B0700F1BE803C070E
:103B1000BDD4B36C1399AB64E964307804286FD1D9
:103B2000069B29469DF817202B62089B306923F0DD
:103B3000FF0313436B62179BAB62FFF787FBF388AE
:103B40000024002205F15009AB800023214648469D
:103B50002E6085F830A085F831406C64C5E90E23ED
:103B60004FF40072FDF758FF1AF0200F53D10024D4
:103B7000404603F08DF90CB100232B60204619B0AC
:103B8000BDE8F08F03F0B0F90246014613980E30FD
:103B9000FEF7E0F8139811461630FEF7DBF813999C
:103BA0003078FFF769FB202300220746CB723046AE
:103BB0001399FEF7C5FA139B00221A775A779A7762
:103BC000DA770123F370002F96D0394604A8D6F88F
:103BD0004890FEF703FD04460028C9D14946304607
:103BE000FEF7BAFA044683E7002CC1D19DF81630DF
:103BF000D8064CD4B9078CD5DA078AD50724B7E79D
:103C0000FFF73AFB0023A86001F11C00FEF79CF8C7
:103C10006B61286193E7D5E9047A57EA0A03A6D0D5
:103C2000B6F80AB0A9684FEA4B2BC5E90E7ABB4536
:103C300074EB0A0319D300242964002C98D1C7F32C
:103C40000803002B93D03046FEF79CF808B37F0A98
:103C50000123494647EACA57C2196A64707802F0DC
:103C600073FC041E18BF012482E72846FEF72AFBD6
:103C7000B7EB0B0701466AF1000A012803D9431C80
:103C8000D5D10124D8E70224D6E7082470E704241C
:103C90006EE702246CE7092470E711246EE7000048
:103CA0002DE9F04F9A4687B00023884605A90446BF
:103CB000CAF800301546FEF7B1F8002840F0B5808C
:103CC00094F831707FBB94F8303013F00103019306
:103CD00000F0AD80D4E90432D4E90E011B1A62EB86
:103CE0000102AB4272F1000238BF1D4604F15003DD
:103CF0000293C5B1D4E90E01C0F30803002B40F0D4
:103D00008580DDF81490430AB9F80A2043EAC153CC
:103D1000013A1A401AD1014309D1A06801280DD8EF
:103D2000022784F83170384607B0BDE8F08F216C67
:103D300020460392FEF7C6FA039AEFE7431C04D12C
:103D40000123019F84F83130EDE72064216C48465F
:103D5000FEF718F80028E3D0B5F5007F02EB000667
:103D600033D3B9F80A1002EB55204FEA552B88429D
:103D700099F8010088BFA1EB020B324641465B4631
:103D800002F0E2FB0028DBD194F93020002A0BDAA4
:103D9000606C801B584507D24FF4007204F150014B
:103DA00008EB4020FDF718FE4FEA4B26DAF800300A
:103DB000AD1BB0443344CAF80030D4E90E329B192D
:103DC00042F10002C4E90E3293E7626CB2421CD0A9
:103DD00094F9303004F15001002B0EDA012399F8E8
:103DE0000100039102F0D4FB0028A9D194F83030EF
:103DF000039903F07F0384F830300123324699F8A9
:103E0000010002F0A1FB00289AD16664A16B404634
:103E1000029BC1F30801C1F500761944AE4228BFE8
:103E20002E463246FDF7D8FDC0E709277BE7072776
:103E300079E7000070B596B00E460022019002A905
:103E400001A8FEF79FFC0446E0B94FF48C6003F034
:103E50000FF80546D8B1029B00F500720199D860B1
:103E600002A81A61FFF710FA044640B99DF95330D1
:103E7000002B0ADB1EB1314602A8FEF727F82846C0
:103E800003F006F8204616B070BD0624F7E71124AB
:103E9000F8E700002DE9F041B8B00222019003A933
:103EA00001A8FEF76FFC044608BB039E4FF48C602C
:103EB000109602F0DDFF0546002865D000F500737E
:103EC000F060019910A83361FFF7DEF9044658B994
:103ED0009DF88B309A0655D41B0653D49DF8468026
:103EE00018F0010F07D00724284602F0D1FF204622
:103EF00038B0BDE8F08134780496042C13D104A9BD
:103F00003069FFF7A3F9069F18F0100F11D110A820
:103F1000FEF778FF04460028E6D157BB3046FEF78F
:103F2000C3F80446E0E71F992046FFF7A5F90746C6
:103F3000EAE7F369BB42D6D0042C4FF0000124A875
:103F40002496269701BFDDE90823CDE928239DF8B3
:103F500017308DF89730FEF74BFA04460028C3D18E
:103F600024A8FFF719F804460028BCD00428BBD1C8
:103F7000CDE70246394604A8FEF730FB0446002888
:103F8000B2D1CBE70624AFE71124B0E72DE9F04723
:103F9000BCB0CDE900106846FDF726FF022203A958
:103FA00001A8FEF7EFFB0446002846D14FF48C60D1
:103FB000039E02F05DFF0546002800F0F38000F547
:103FC000007314AFF06033610023019938461496F2
:103FD00016932093FFF758F9044658BB9DF89B3081
:103FE00013F0A00F40F0DA803378DDF85880042B0E
:103FF000DDF88090009C66D133690DF1100C03F15F
:10400000400E1868083353F8041C6246734503C217
:104010009446F6D15022394628A8FDF7DDFC21460A
:1040200028A8FFF731F90446002849D12A9B4345C7
:1040300007D00824284602F02BFF20463CB0BDE8FC
:10404000F087349B4B45F4D128A8FFF7FFFA0446CC
:104050000028EFD133690DF1100C93F8018093F82B
:1040600023E09C8C6246083303CABA4243F8080C2A
:1040700043F8041C9446F5D1336928A883F80180DD
:10408000336983F823E0336983F82440240A83F8F2
:10409000254032691379D9065CBF43F020031371C0
:1040A000FEF74AFF04460028C4D13846FEF7AAFEB0
:1040B00004460028BED13046FDF7F6FF0446B9E7B6
:1040C0000428B7D1C0E7239A04AB02F1200E106890
:1040D000083252F8041C9C467245ACE80300634663
:1040E000F5D15022394628A89DF81BA0FDF774FC95
:1040F000214628A8FFF7C8F8044600284AD12A9B81
:10410000434596D1349B4B4593D128A8FFF79EFA9F
:10411000044600288ED137990DF11D030DF12D00B5
:1041200001F10D0253F8044B834242F8044BF9D1DC
:1041300018881AF0100F4FF00109108008BF4AF0DC
:10414000200A9B78937081F80BA086F80390CB7AB5
:10415000DB06AAD52A9B4345A7D03078FFF78CF819
:1041600001463046FDF70EFE0146C8B13046FDF768
:10417000F3FF044600287FF45DAF96F86D302E2BD8
:1041800093D12A9A06F16C013046FDF7D9FF86F8E3
:1041900003908AE704287FF44DAFB6E7062449E789
:1041A000022447E7112448E77F2801D880B27047EE
:1041B000B0F5803F11D240F2523399420DD1084AF6
:1041C000002332F8021B814201D19BB202E001338D
:1041D000802BF6D18033D8B270470020704700BFE3
:1041E000949400087F280DD940F25233994208D1A7
:1041F000FF2806D800F10040034B803833F8100048
:1042000070470020704700BF94940008B0F5803FCD
:10421000F0B522D283B21F4A1F49B3F5805F38BF81
:104220000A46141D34F8042C2146AAB1934213D334
:1042300034F8025C2E0AEFB252FA85F5A84223DA6E
:10424000082E09D8DFE806F0050A10131517191B08
:104250001D00801A34F810301846F0BD9A1A02F08A
:1042600001029A1A93B2F7E7103B9BB2F4E7203BA6
:10427000FBE7303BF9E71A3BF7E70833F5E7503B3C
:10428000F3E7A3F5E353F0E70434002ECAD101EBC2
:104290004702C6E7E4910008A092000808B5074B62
:1042A000074A196801F03D01996053680BB19068A5
:1042B0009847BDE8084002F0EDBF00BF0000024093
:1042C0003C36002008B5084B1968890901F03D010A
:1042D0008A019A60054AD3680BB110699847BDE816
:1042E000084002F0D7BF00BF000002403C3600206B
:1042F00008B5084B1968090C01F03D010A049A60E1
:10430000054A53690BB190699847BDE8084002F02F
:10431000C1BF00BF000002403C36002008B5084B7A
:104320001968890D01F03D018A059A60054AD36933
:104330000BB1106A9847BDE8084002F0ABBF00BF60
:10434000000002403C36002008B5074B074A596878
:1043500001F03D01D960536A0BB1906A9847BDE8FE
:10436000084002F097BF00BF000002403C3600202A
:1043700008B5084B5968890901F03D018A01DA60E6
:10438000054AD36A0BB1106B9847BDE8084002F0AC
:1043900081BF00BF000002403C36002008B5084B3A
:1043A0005968090C01F03D010A04DA60054A536BB3
:1043B0000BB1906B9847BDE8084002F06BBF00BF9F
:1043C000000002403C36002008B5084B5968890DB2
:1043D00001F03D018A05DA60054AD36B0BB1106C20
:1043E0009847BDE8084002F055BF00BF00000240FA
:1043F0003C36002008B5074B074A196801F03D011B
:104400009960536C0BB1906C9847BDE8084002F07E
:1044100041BF00BF000402403C36002008B5084BF5
:104420001968890901F03D018A019A60054AD36C37
:104430000BB1106D9847BDE8084002F02BBF00BFDC
:10444000000402403C36002008B5084B1968090CEE
:1044500001F03D010A049A60054A536D0BB1906D5D
:104460009847BDE8084002F015BF00BF00040240B5
:104470003C36002008B5084B1968890D01F03D0154
:104480008A059A60054AD36D0BB1106E9847BDE856
:10449000084002F0FFBE00BF000402403C3600208E
:1044A00008B5074B074A596801F03D01D960536EC2
:1044B0000BB1906E9847BDE8084002F0EBBE00BF1C
:1044C000000402403C36002008B5084B59688909B1
:1044D00001F03D018A01DA60054AD36E0BB1106F1D
:1044E0009847BDE8084002F0D5BE00BF0004024076
:1044F0003C36002008B5084B5968090C01F03D0115
:104500000A04DA60054A536F0BB1906F9847BDE813
:10451000084002F0BFBE00BF000402403C3600204D
:1045200008B5084B5968890D01F03D018A05DA602C
:10453000054AD36F13B1D2F880009847BDE8084010
:1045400002F0A8BE000402403C36002000230C4AC2
:1045500010B519460B4C42F8043B54F82300016097
:1045600042F813100433402BF7D1074A4FF0FF33C2
:104570009360D360C2F80834C2F80C3410BD00BF99
:104580003C360020949500080000024011282DE9D7
:10459000F041884611D004D8102810D10F240020F3
:1045A00003E0122807D10F2407202D4F4FF0010CF4
:1045B0003D68A04205D900203BE00724EFE7044610
:1045C000F3E70CFA00F6354248D107EBC004354357
:1045D000C4E90123F3B23D606BBB224BD3F8D84052
:1045E00044F00204C3F8D840D3F8004144F0020478
:1045F000C3F80041D3F8003105011B4C635918681A
:1046000020F01F001860186810F00100FBD1661937
:104610004FF03D0C96F80CE071680CFA0EF70F6045
:104620001860212058611AB14146B07B00F062FC4D
:104630006019BDE8F0810B4B16F47F4FD3F8D840DA
:1046400044F00104C3F8D840D3F8004144F0010419
:10465000C3F80041D3F80031CED0BEE70130A8E75F
:104660003C360020004402589495000810B53024D0
:1046700084F31188FFF78AFF002383F3118810BDAC
:1046800010B50446807B00F04BFC1649637B012289
:104690009A400B6823EA0203DAB20B6072B9124A3D
:1046A000D2F8D81021F00101C2F8D810D2F80011C8
:1046B00021F00101C2F80011D2F8002113F47F4F5C
:1046C0000ED1094BD3F8D82022F00202C3F8D8202B
:1046D000D3F8002122F00202C3F80021D3F8003100
:1046E00010BD00BF3C3600200044025808B53023FE
:1046F00083F31188FFF7C4FF002383F3118808BDFB
:10470000836CC26A8B42506806D9013B4A0003EBB6
:104710004103B3FBF2F318447047000001F00103BA
:104720008A0748BF43F002034A0748BF43F0080323
:104730000A0748BF43F00403CA0648BF43F010030A
:104740008A06426B48BF43F020031A434263704716
:1047500008B5074800F060FF054A002305491364C7
:10476000054BC2E91113054BD363054BD36408BD58
:10477000C43800200070005200B4C404C4360020C5
:10478000C0360020C36A0BB9104BC3620379012BFA
:1047900011D10F4B98420ED10E4BD3F8D42042F4D6
:1047A0008032C3F8D420D3F8FC2042F48032C3F81E
:1047B000FC20D3F8FC30436C00221A65DA621A60E0
:1047C0005A605A624FF0FF329A637047949600081D
:1047D000C4380020004402580379012B1BD0436CDD
:1047E00000221A65DA621A605A605A624FF0FF328C
:1047F0009A63094B98420ED1084BD3F8D42022F487
:104800008032C3F8D420D3F8FC2022F48032C3F8DD
:10481000FC20D3F8FC307047C43800200044025814
:1048200010B5446C0649FFF76BFF6060236842F2E5
:10483000107043F003032360BDE8104001F0F4BCA6
:10484000801A060070B5456C0129074E6C6808BFD8
:10485000064904EA060418BF0549FFF751FF04435F
:1048600044F480546C6070BD00ECFFFF80F0FA02ED
:1048700040787D01436C00225A601A607047000046
:10488000426C0129536823F4404304D0022905D027
:1048900001B95360704743F48043FAE743F400439F
:1048A000F7E70000436C41F480519A60D9605A6B7D
:1048B0001206FCD580229A637047000010B541F4BF
:1048C0008851446CA260E160616B11F04502FBD03D
:1048D000A26311F0040203D0FFF720FF012010BDF6
:1048E000616910461960FAE710B541F48851446CCB
:1048F000A260E160616B11F04502FBD0A26311F090
:10490000050203D0FFF70AFF012010BD61691046C0
:104910001960FAE72DE9F041302304460F461646A8
:1049200083F31188436CDB6B23B14FF0FF314030D0
:1049300001F086FC606C00220265C263C262456BB6
:1049400015F4807504D185F311880120BDE8F0814C
:104950004FF0FF33836382F31188012F06D933466A
:1049600020460C21BDE8F041FFF7BEBF1046EDE741
:104970002DE9F041446C0F4600251646616BA1639A
:104980002565E562FFF7CAFE012F06D933462A46A0
:104990000C21BDE8F041FFF7A7BFBDE8F0810000A2
:1049A00010B541F49851446CA260E160616B11F064
:1049B0004502FBD0A26311F03F0203D0FFF7AEFE29
:1049C000012010BD216A10461960E1695960A16992
:1049D00099606169D960F4E72DE9F34104460191DA
:1049E000006D01A916461F4602F07CFB00284BD043
:1049F000636C4FF47A72A06C5D68DDF80480C5F3D7
:104A0000090501356D00B0FBF5F0B0FBF2F0504345
:104A10005862204600F0BEFD60BB636C4FF0FF3271
:104A2000E56C3946C3F858804FF001082046C3F8BA
:104A300050809A634FF49572DA6342F207029E62E5
:104A4000DA622B46089AFFF74FFF98B92A680F4B96
:104A500013407BB92A4641462046FFF75BFF0546D7
:104A600040B932460199206D02F074FB284602B02D
:104A7000BDE8F08132460199206D02F06BFBE26CDB
:104A800001212046FFF774FF0125EFE708E0FFFD55
:104A90002DE9F7431F46436C856C04465E688846E3
:104AA00001924FF47A72C6F3090601367600B5FB1F
:104AB000F6F5B5FBF2F555435D6200F06BFD00289D
:104AC00047D14FEA472901A9206D4A4602F00AFB67
:104AD00000283ED0656C019BE66CAB6501232B651D
:104AE0004FF0FF33AB634FF49573EB63236BC5F863
:104AF0002890DB06334658BF4FEA4828012F42462C
:104B00001BD912212046FFF7EFFEC0B93268124BC5
:104B10001340A3B942F29303324639462046EB6272
:104B2000FFF7F8FE054650B94A460199206D02F09C
:104B300011FB284603B0BDE8F0831121E2E74A46A5
:104B40000199206D02F006FBE26C39462046FFF722
:104B50000FFF0125EDE700BF08E0FFFD2DE9F34160
:104B60001F46436C856C04465E68884601924FF48C
:104B70007A72C6F3090601367600B5FBF6F5B5FB89
:104B8000F2F555435D6200F005FD002843D17E0239
:104B900001A9206D324602F0EBFA00283BD0656C8B
:104BA000019BAB6501232B654FF0FF33AB634FF4E3
:104BB0008D73EB63236BAE62DB06E66C58BF4FEA86
:104BC0004828012F334642461AD919212046FFF7BB
:104BD0008BFEB8B93268114B13409BB942F2910376
:104BE000324639462046EB62FFF794FE054648B947
:104BF0000199206D02F0F8FA284602B0BDE8F08174
:104C00001821E3E70199206D02F0EEFAE26C3946D3
:104C10002046FFF7ADFE0125EEE700BF08E0FFFDEF
:104C200012F0030F2DE9F04107460C4615461E46CB
:104C300017D00E44B44202D10020BDE8F081012318
:104C4000FA6B21463846FFF723FF0028F5D12846A6
:104C50004FF40072F96B05F500750134FCF7BCFEEA
:104C6000E8E7BDE8F041FFF713BF000012F0030FC3
:104C70002DE9F04107460C4615461E4617D00E4456
:104C8000B44202D10020BDE8F08129464FF4007201
:104C9000F86B05F50075FCF79FFE0123FA6B2146C2
:104CA0003846FFF75BFF0028EDD10134E8E7BDE8A7
:104CB000F041FFF753BF000000207047302310B5CC
:104CC00083F311880024436C40302146DC6301F0FB
:104CD000C5FA84F3118810BD026843680A43026074
:104CE00003B1184770470000024A136843F0C0033D
:104CF00013607047004C004013B50E4C204600F086
:104D0000EBFC04F1140000234FF400720A490094F4
:104D100000F07CF9094B4FF40072094904F13800A6
:104D2000009400F0F5F9074A074BC4E9172302B0D5
:104D300010BD00BF183D0020183B0020E94C0008C2
:104D400018390020004C004000E1F505264B30B535
:104D5000002914BF0C461C46037C012B11D1234BA8
:104D600098420ED1224BD3F8E82042F40022C3F837
:104D7000E820D3F8102142F40022C3F81021D3F820
:104D800010312268036EC16D03EB52038466B3FBDE
:104D9000F2F36268150442BF23F0070503F007032E
:104DA00043EA4503CB60A36843F040034B60E368EC
:104DB00043F001038B6042F4967343F001030B60F0
:104DC0004FF0FF330B6251050AD512F0102209D0C3
:104DD000B2F1805F14BFFF233F2380F8643030BD01
:104DE000FF23FAE77F23F8E79C960008183D002090
:104DF000004402582DE9F047C66D04463768F5694E
:104E00002A07356214D06901AB074FF0300301F473
:104E1000907148BF41F04001680748BF41F08001F0
:104E200083F31188201DFFF757FF002383F31188B8
:104E3000EA050AD5302383F311884FF48061201DE1
:104E4000FFF74AFF002383F311884FF030094FF03A
:104E5000000A0BE089F31188736A204694F8641005
:104E6000194000F053FC8AF31188F56915F0200809
:104E7000F0D13B0616D54FF0300A04F13809280668
:104E800010D58AF31188484600F076F9002829DA0F
:104E90000821201DFFF720FF27F080033360002347
:104EA00083F31188790614D56A0612D5302383F36B
:104EB0001188D4E913239A4208D1236C33B127F027
:104EC00040071021201DFFF707FF3760002383F301
:104ED0001188EB060BD5A26E136943B15069BDE88A
:104EE000F0471847B06288F31188F569C7E7BDE855
:104EF000F0870000090100F16043012203F56143DE
:104F0000C9B283F8001300F01F039A4043099B00C5
:104F100003F1604303F56143C3F880211A607047D1
:104F200000F01F0301229A40430900F160409B00FA
:104F300000F5614003F1604303F56143C3F880204D
:104F4000C3F88021002380F800337047F8B5154678
:104F5000826804460B46AA4200D28568A169266988
:104F6000761AB5420BD22A461846FCF735FDA269DF
:104F70002A44A3682846A2615B1BA360F8BD0CD934
:104F8000AF1B18463246FCF727FD3A46E16830442D
:104F9000FCF722FDE368DA19EBE72A461846FCF72E
:104FA0001BFDE268E5E70000836893422DE9F041CC
:104FB00004460E46154600D28568D4E904703F1AAF
:104FC000BD420CD22A463146FCF706FD62692A44EE
:104FD000A368284662615B1BA360BDE8F0810ED91F
:104FE000A5EB07083A463146FCF7F6FC4246F119B4
:104FF000E068FCF7F1FCE36803EB0802E8E72A4607
:105000003146FCF7E9FCE268E2E7000010B5002455
:10501000C160C361029B84600362C0E90511114451
:10502000C0E90000016110BD08B5D0E90532934226
:1050300001D1826882B98268013282605A1C426161
:1050400019700021D0E904329A4224BFC368436139
:1050500001F01EF9002008BD4FF0FF30FBE7000013
:1050600070B5302304460D4683F31188A668A6B1B7
:10507000A368A269013BA360531CA3611578226950
:10508000934224BFE368A361E3690BB120469847CC
:10509000002383F31188284607E02946204601F0C3
:1050A000E7F80028E2DA86F3118870BD2DE9F74FA2
:1050B00005460F4614469946D0F81CA04FF030081C
:1050C00088F311884FF0000B164666B13246394618
:1050D0002846FFF73BFF034660B94946284601F0E2
:1050E000C7F80028F2D0002383F31188A01B03B077
:1050F000BDE8F08FBAF1000F03D001902846D047E9
:10510000019B8BF31188F61A1F4488F31188DCE7A2
:10511000C160C361009B82600362C0E90511114454
:10512000C0E9000001617047F8B504460D46164617
:10513000302383F31188A768A7B1A368013BA3605C
:1051400063695A1C62611D70D4E904329A4224BF1B
:10515000E3686361E3690BB120469847002080F360
:10516000118807E03146204601F082F80028E2DA93
:1051700087F31188F8BD0000D0E9052310B59A42E5
:1051800001D182687AB982680021013282605A1C9A
:1051900082611C7803699A4224BFC368836101F06D
:1051A00077F8204610BD4FF0FF30FBE72DE9F74FB1
:1051B00005460F4614469946D0F81CA04FF030081B
:1051C00088F311884FF0000B164666B13246394617
:1051D0002846FFF7E9FE034660B94946284601F034
:1051E00047F80028F2D0002383F31188A01B03B0F6
:1051F000BDE8F08FBAF1000F03D001902846D047E8
:10520000019B8BF31188F61A1F4488F31188DCE7A1
:105210000379052B05BF836A002001204B6004BF82
:105220004FF400730B60704770B55D1E866A0446CC
:105230000D44B54205D9436B43F08003436301201D
:1052400070BD06250571FFF7EBFC05232371F7E719
:1052500070B55D1E866A04460D44B54205D9436BA0
:1052600043F080034363012070BD07250571FFF7FC
:10527000FDFC05232371F7E738B505790446052DB4
:1052800005D108230371FFF717FD257138BD0120F3
:10529000FCE700000323F0B585B003710446FFF777
:1052A000BFFA002220461146FFF7FCFA4FF4D572F0
:1052B00003AB08212046FFF717FB0246B8B90123CC
:1052C0002363039B03F47063B3F5807F09D103ABC1
:1052D00037212046FFF708FB18B9A54B039A134066
:1052E000A3B120460125FFF7C5FA0223ACE003ABCA
:1052F000002237212046FFF7F7FA28B99C4A039B82
:105300001A40002A00F0A48002232363236B03F0D9
:105310000F03022B40F0A680642542F2107000F0CB
:1053200083FF03AB934A01212046FFF7C7FA002809
:10533000D7D1039B002B80F291805A0003D5236BB9
:1053400043F010032363002204F1080302212046E6
:10535000FFF726FB02460028C3D104F138030321DE
:105360002046FFF7C1FA0028BBD104F11805A26B53
:10537000092120462B46FFF713FB0028B1D102ABD1
:10538000A26B07212046FFF7AFFA06460028A8D1F6
:10539000236B03F00F03022B40F08D807E227F21D0
:1053A000284603F0AFF9012840F28580E76B42F20E
:1053B000107000F039FF08234FF400723946204680
:1053C0000096FFF709FB00288BD1384603F0E6F979
:1053D000236BA06203F00F03022B70D103AB664A6C
:1053E00006212046FFF780FA00286FD16049039B11
:1053F0001940B1FA81F149092046FFF723FA02ABBF
:105400004FF4007210212046FFF76EFA054600287F
:105410007FF467AF564E029B33427FF462AF236B3B
:1054200013F00E0F73D003F00F03022B7FF459AF6C
:10543000E36A1978012900F08F80022900F0938037
:10544000002940F0928005232846237105B0F0BD65
:10545000114620462263FFF725FA57E7013D7FF406
:105460005CAF3EE7454D6426454A414F012B08BFDE
:10547000154603AB002237212046FFF735FA0028F6
:105480007FF42FAF039B3B427FF42BAF03AB2A4645
:1054900029212046FFF712FA00287FF422AF039B50
:1054A000002BFFF64AAF013E3FF41BAF42F21070F3
:1054B00000F0BAFEDDE7284603F044F988E77E22D3
:1054C0007F212846E66B03F01DF908B9002193E718
:1054D000002340223146204600930623FFF77CFA42
:1054E0000028F3D1B3895BBA9B07EFD5254B402247
:1054F0003146204600930623FFF76EFA0028E5D1D7
:10550000317C01F00F010F3918BF012174E7E36A04
:105510001978002997D001297FF4E3AE2046FFF7E0
:10552000AFF903ABA26B37212046FFF7DDF9002866
:105530007FF4D7AE039B33427FF4D3AE03AB02229A
:1055400006212046FFF7D0F900287FF4CAAE039B5E
:1055500033423FF478AFC4E60B4F2046FFF790F993
:1055600003AB3A46ECE7094FF7E7094FF5E700BF11
:1055700008E0FFFD0080FFC00001B90300001080BB
:105580000080FF50F1FFFF800001B7030002B70366
:105590000000B70337B504460C4D01ABA26B0D21DB
:1055A0002046FFF7A1F978B9019B2B420BD1C3F339
:1055B0004323042B08D0053B022B04D84FF47A7008
:1055C00000F032FEE9E7012003B030BD08E0FFFD46
:1055D00070B53023044683F311880379022B4FF012
:1055E000000303D183F3118800250CE0042202712B
:1055F00083F31188FFF7CEFF05460226204625B12A
:10560000FFF738F92671284670BDFFF733F9267188
:10561000EAE70000FFF79CB8044B03600123037125
:1056200000234363C0E90A33704700BFB496000803
:1056300010B53023044683F31188C162FFF7A2F846
:1056400002230020237180F3118810BD10B5302390
:10565000044683F31188FFF7BFF800230122E362B9
:10566000227183F3118810BD026843680A43026007
:1056700003B11847704700001430FFF717BD000052
:105680004FF0FF331430FFF711BD00003830FFF743
:105690008DBD00004FF0FF333830FFF787BD0000AD
:1056A0001430FFF7DDBC00004FF0FF311430FFF77E
:1056B000D7BC00003830FFF737BD00004FF0FF3295
:1056C0003830FFF731BD0000012914BF6FF013001F
:1056D00000207047FFF710BB044B036000234360BA
:1056E000C0E9023301230374704700BFD896000855
:1056F00010B53023044683F31188FFF727FB0223FC
:105700000020237480F3118810BD000038B5C369F0
:1057100004460D461BB904210844FFF7A5FF29469E
:1057200004F11400FFF780FC002806DA201D4FF476
:105730000061BDE83840FFF797BF38BD0268436895
:105740000A43026003B118477047000013B5406B6D
:1057500000F58054D4F8A4381A681178042914D1BB
:10576000017C022911D11979012312898B4013423E
:105770000BD101A94C3002F0F5FED4F8A448024642
:10578000019B2179206800F0DFF902B010BD000014
:10579000143002F07DBE00004FF0FF33143002F0F1
:1057A00077BE00004C3002F049BF00004FF0FF33DD
:1057B0004C3002F043BF0000143002F04BBE00003A
:1057C0004FF0FF31143002F045BE00004C3002F0C3
:1057D00015BF00004FF0FF324C3002F00FBF000049
:1057E0000020704710B500F58054D4F8A4381A682A
:1057F0001178042917D1017C022914D15979012388
:1058000052898B4013420ED1143002F0DDFD024666
:1058100048B1D4F8A4084FF4407341790068BDE85A
:10582000104000F07FB910BD406BFFF7DBBF0000F8
:10583000704700007FB5124B012504260446036023
:105840000023057400F1840243602946C0E9023355
:105850000C4B0290143001934FF44073009602F009
:105860008FFD094B04F69442294604F14C00029442
:10587000CDE900634FF4407302F050FE04B070BDF8
:1058800000970008295800084D5700080A6830237F
:1058900083F311880B790B3342F823004B791333D0
:1058A00042F823008B7913B10B3342F8230000F543
:1058B0008053C3F8A41802230374002080F31188D6
:1058C0007047000038B5037F044613B190F8543098
:1058D000ABB90125201D0221FFF730FF04F11400B0
:1058E0006FF00101257700F0DFFC04F14C0084F833
:1058F00054506FF00101BDE8384000F0D5BC38BD10
:1059000010B5012104460430FFF718FF0023237768
:1059100084F8543010BD000038B50446002514301A
:1059200002F046FD04F14C00257702F00FFE201D29
:1059300084F854500121FFF701FF2046BDE83840AC
:10594000FFF750BF90F88020034602F06002202A43
:1059500014D190F881200020212A02D81F2A03D8D0
:105960007047222A07D07047054A5A6707229A676C
:10597000D86701207047C3E91D00F9E70020704790
:105980003C22002037B500F58055D5F8A4381A68B8
:10599000117804291AD1017C022917D11979012320
:1059A00012898B40134211D100F14C04204602F0C1
:1059B0008BFE58B101A9204602F0D4FDD5F8A448C9
:1059C0000246019B2179206800F0BEF803B030BD8B
:1059D00001F10B03F7B550F8236004460D46F6B10C
:1059E000302383F3118804EB8507301D08214C36E2
:1059F000FFF7A4FEFB685B691B6813B1304602F039
:105A0000BFFD01A9304602F0ADFD024648B1019B41
:105A10002946204600F098F8002383F3118803B04C
:105A2000F0BDFB685A691268002AF5D01B8A013B59
:105A30001340F1D104F18002EAE70000133138B5D8
:105A400050F82140ECB1302383F3118804F58053E2
:105A5000D3F8A4281368527903EB8203DB689B69AF
:105A60005D6845B104216018FFF768FE294604F11E
:105A7000140002F0B3FC2046FFF7B4FE002383F3CA
:105A8000118838BD7047000001F0FCBC01234022A2
:105A9000002110B5044600F8303BFBF7BDFF0023A2
:105AA000C4E9013310BD000010B53023044683F370
:105AB00011882422416000210C30FBF7ADFF204605
:105AC00001F002FD02230020237080F3118810BD35
:105AD00070B500EB8103054650690E461446DA6046
